:1000000042C0A4C15BC05AC059C058C057C056C0F6
:1000100055C054C053C052C051C050C04FC04EC054
:100020004DC04CC04BC04AC049C048C047C046C084
:1000300045C044C0090212000101008019090400F2
:1000400000000000000012011001FF000008C016AF
:10005000DC050401010200010E03550053004200BB
:100060006100730070001C037700770077002E009A
:10007000660069007300630068006C002E00640075
:1000800065000403090411241FBECFEFD4E0DEBFD6
:10009000CDBF11E0A0E0B1E0E8E0F2E102C00590E0
:1000A0000D92A230B107D9F711E0A2E0B1E001C092
:1000B0001D92AA34B107E1F780D8A4C8A1CFCF938D
:1000C000DF9360912801635067FD14C020912501E2
:1000D0008CE090E0821B9109EC01C45DDE4F8091C1
:1000E00024018D3209F455C08091020187FD97C02B
:1000F000109228018091010184FF3EC060910001AF
:100100006F3FD1F1693008F46CC068506093000112
:100110009091180188E889278093180168E0809100
:10012000020187FD1CC0209126013091270186FF26
:100130006DC0A9E1B1E0F901962F84918D933196BC
:100140009150D9F78FEF860F90E00196280F391F55
:100150003093270120932601C4E0C60F4DC089E1EA
:1001600091E0C9D6682F893008F49FC08FEF809343
:100170000001CEE1C093010194E183B1837031F4B9
:100180009150D9F71092290110922301DF91CF915C
:100190000895683009F0ACCF83EC809318018AE5AC
:1001A00080930101109202018881807609F041C09C
:1001B0008A81109221019981911146C010922201E9
:1001C00021E231E082E030932701209326019F81D4
:1001D000911104C09E81981708F4892F8093000123
:1001E00087CF109200019091180188E889278093A9
:1001F0001801611194CFC4E089E191E0A3D0CC3023
:1002000009F4B8CF8FEF80930001B4CFD901E9E1B1
:10021000F1E0962F8D9181939150E1F793CFCE012C
:10022000EAD68F3F01F1882309F462CF10920001D2
:100230005FCFCE01A5D48F3F51F6988197FD1DC0A9
:1002400090E890930201CACF953089F0963009F179
:100250009830D9F0993099F081E09A3009F080E037
:1002600021E231E0B0CF8EE18093010141CF809354
:10027000290121E231E080E0A6CF8E81E1CF809399
:100280002B0121E231E080E09ECF2BE231E081E0E2
:100290009ACF9B819130F1F09230A1F0933041F0F0
:1002A00080E090E49093020192CFC4E0C80FA4CF05
:1002B000811118C082E890E0909327018093260175
:1002C00084E0EFCF84E390E09093270180932601B0
:1002D00082E1E7CF86E490E09093270180932601A6
:1002E00082E1DFCF813051F08230D1F688E590E0B5
:1002F00090932701809326018EE0D3CF86E690E08D
:1003000090932701809326018CE1CBCFE9E6F0E0C2
:10031000808183608083E89A0895A82FB92F80E0B8
:1003200090E041E050EA609530E009C02D918227CD
:100330009795879510F084279527305EC8F36F5FF7
:10034000A8F30895EADF8D939D930895CF93CFB7D7
:10035000CF93C395189BE9F7189B09C0189B07C05A
:10036000189B05C0189B03C0189B01C0A1C0DF9358
:10037000C0912501DD27C45DDE4F189B02C0DF91CF
:10038000EBCF2F930F931F9303B12FEF00FB20F9B7
:100390004F933F9313B14FEF012700FB21F93BE04F
:1003A00031C04E7F012F13B1216028C0102F4D7F27
:1003B0002260000003B129C04B7F2460012F0000A0
:1003C00013B12BC013B1477F28602AC04F7E03B101
:1003D00020612CC04F7D13B120622FC04F7B03B131
:1003E000206432C0422703B149934FEF0000102729
:1003F00010FB20F913B11370C9F1297F91F2012785
:1004000000FB21F903B1237F89F2315058F1102705
:1004100010FB22F913B1277E79F2012700FB23F9A3
:100420002F7C81F203B1102710FB24F92F7971F290
:1004300000C013B1012700FB25F92F7359F200C04A
:1004400003B1102710FB26F9223040F200C013B18F
:10045000012700FB27F9243028F64F77206813B1D5
:100460000000F9CF11E01CBB002717C03B503195AD
:10047000C31BD04011E01CBB0881033CE9F00B34E6
:10048000D9F0209123011981110F1213EDCF0936F4
:1004900041F10D3211F0013E39F700932A013F91ED
:1004A0004F911F910F912F91DF91CCB3C0FD51CF90
:1004B000CF91CFBFCF91189520912A01222379F3B4
:1004C00010912801112311F5343012F130932801D5
:1004D00020932401109125013BE0311B309325012D
:1004E00017C00091280101308CF40AE53091010118
:1004F00034FD10C000930101C8E1D1E00FC0279581
:10050000A8F45150A9F4220F0000F9CF4AE503C026
:1005100042ED01C0432FC4E1D0E032E014B11360DA
:10052000289A14B905B120E413E05F93012756E03F
:1005300005B9279520F4515021F4220FF9CF012756
:1005400056E000003B5A05B9D0F2279528F45150E7
:1005500029F4220F0000F9CF012756E0279505B9AD
:1005600020F4515021F4220FF9CF012756E02991B0
:10057000332305B921F60C7F10912901110FC651C3
:10058000D04005B911F01093230111E01CBB0160AC
:1005900014B11C7F402F4C7F5F9100C000C005B993
:1005A00014B945B97CCF582F48E080E057FD18C0FA
:1005B0002B98550F880F1C998F5F2D9A36B5209177
:1005C000470196B5931B9217E0F32D9836B520910D
:1005D000470196B5931B9217E0F3415039F7089500
:1005E0002B9AE7CF8EBD0DB407FEFDCF8EB50895D3
:1005F000DC01CB0121E1B695A795979587952A95C2
:10060000D1F7209146012817D9F080934601E09157
:100610004301F09144018DE40995E0914301F0918B
:10062000440180E00995E0914301F09144018091FB
:1006300046010995E0914301F091440180E009945D
:100640000895809145018CBD809142018DBD089532
:100650008823A1F08830C8F523ED32E030934401BF
:10066000209343018430E9F000F18630B9F028F19D
:10067000873099F483E080934701089582EF92E0F8
:1006800090934401809343011092420181E0809352
:10069000470182E580934501089580EC80934701EE
:1006A000089588E1809347010895823051F08330A6
:1006B000A1F780E38093470108958CE08093470180
:1006C000089580E680934701089522EF32E0309349
:1006D0004401209343011092420191E0909347011D
:1006E0008930B9F288F08B3021F08C3031F490935E
:1006F000420181E580934501089582E5809345019B
:1007000081E08093420108958830B9F783E58093B2
:100710004501089526B59091470186B5821B89173A
:10072000E0F3089584B18C6284B92A982D9826B597
:100730009091470186B5821B8917E0F32A9A26B566
:100740009091470186B5821B8917E0F32A98809122
:10075000430190914401825F924019F0109246014A
:100760000895809145018CBD809142018DBD10920C
:100770004601089584B1837D84B985B1837D85B9AF
:100780001CBC0895CF93DF93C0E2E0914301F09148
:1007900044018CEA0995E0914301F091440183E51D
:1007A0000995E0914301F091440180E00995D82F2B
:1007B000E0914301F091440180E00995D33561F166
:1007C0001CBC26B59091470186B5821B8917E0F3C2
:1007D0002A9A26B59091470186B5821B8917E0F3C6
:1007E0002A9826B59091470186B5821B8917E0F3B8
:1007F0008091430190914401825F924031F0C15059
:1008000021F681E0DF91CF910895809145018CBD63
:10081000809142018DBDF3CF80E0DF91CF910895AB
:10082000CF92DF92EF92FF926B017C01E1DE8C2D83
:100830008170880F880F880FE0914301F091440187
:1008400080620995D701C60129E0B695A7959795CD
:1008500087952A95D1F7E0914301F09144010995DC
:10086000D701C601B695A79597958795E091430165
:10087000F09144010995E0914301F091440180E039
:10088000FF90EF90DF90CF900994CF92DF92EF929C
:10089000FF920F931F93CF93DF931F92CDB7DEB7D5
:1008A0006B017C01142F2983A3DE9C2D9170892F6D
:1008B000880F880F880FE0914301F0914401806414
:1008C0000995D701C60129E0B695A7959795879513
:1008D0002A95D1F7E0914301F09144010995D701A0
:1008E000C601B695A79597958795E0914301F0913C
:1008F00044010995E0914301F0914401812F09954C
:1009000029812223A9F01F3789F006B51EE1C7010E
:10091000B60186DF8F3761F486B5801B8D3310F00A
:1009200006B511501111F3CF81E003C08FE0B3D0B1
:1009300080E00F90DF91CF911F910F91FF90EF908A
:10094000DF90CF900895CF92DF92EF92FF920F93B6
:100950001F93CF93DF931F92CDB7DEB76B017C015E
:10096000498346DEE0914301F09144018CE409950E
:10097000D701C60129E0B695A795979587952A9541
:10098000D1F7E0914301F09144010995D701C601E7
:10099000B695A79597958795E0914301F09144010D
:1009A0000995E0914301F091440180E00995498166
:1009B0004F3FE1F006B51EE1C701B60131DF8F3FC1
:1009C00099F486B5801B8D3310F006B511501111C6
:1009D000F3CF81E00F90DF91CF911F910F91FF90A6
:1009E000EF90DF90CF90089580E0F4CF8FE053D068
:1009F00080E0F0CF1F93CF93DF931F92CDB7DEB788
:100A0000182FE0914301F091440180EA9983099500
:100A1000E0914301F09144019981892F0995E0917A
:100A20004301F0914401812F0995E0914301F09138
:100A3000440180E00F90DF91CF911F9109941F93A3
:100A4000CF93DF9300D0CDB7DEB7182FE0914301ED
:100A5000F091440180EC6A8399830995E091430108
:100A6000F09144019981892F0995E0914301F0911A
:100A70004401812F0995E0914301F09144016A817D
:100A8000862F09958EE107D080E00F900F90DF91BF
:100A9000CF911F910895882349F030E026B596B58F
:100AA000921B9C33E0F33F5F3813F8CF0895259AEB
:100AB00023982B9A50E217D05A95E9F70895AC0184
:100AC00088E605D0842F03D089E601D0852F0FD08A
:100AD00028E030E0382780FB869506D02A95D1F7AC
:100AE00030FB02D000D0689423982B9A16F02B98F4
:100AF000239AE0914801F09149013197F0F72D9A3E
:100B0000E3B1E3FBE0914801F09149013197F0F73F
:100B10002D98089520ECE7DF46F42A95E1F780E070
:100B20002AE1E5DF2A95E9F7DECF28E030E0DBDFD8
:100B3000869587F938272A95D1F7D5DF27F9322707
:100B400072F3D1DFD0CFDB01742FB9DF84E2BFDFD6
:100B5000E1DF8D937A95D1F70895DB01742FAFDF34
:100B600083EFB5DF8DE1B3DF84E6B1DF8D91AFDFD9
:100B700082E7ADDFCFDF8078D9F77A9589F70895DE
:100B8000CF93DF93EC019981913009F4A5C09230A5
:100B900009F4ABC0933009F458C0943049F1973050
:100BA00009F475C0953009F41AC1963009F4A1C052
:100BB000983009F4E9C0993009F4D5C09A3009F4A5
:100BC00034C19B3009F464C19C3009F476C19D3076
:100BD00009F488C19E3009F48AC19F3009F404C128
:100BE000903109F429C19F3709F447C180E024C03E
:100BF00080910D01811112C08B8190E0982F882780
:100C00002A81822BAA2797FDA095BA2F80930901EC
:100C100090930A01A0930B01B0930C018F8190E097
:100C2000982F88272E81822B9093080180930701AB
:100C300082E080930F018FEF20E131E030932701B4
:100C400020932601DF91CF910895E0914301F09127
:100C500044018A81099580931001E0914301F0914C
:100C600044018B81099580931101E0914301F0913A
:100C700044018C81099580931201E0914301F09128
:100C800044018D8109958093130184E0D5CF809133
:100C90000D01811112C08B8190E0982F88272A8145
:100CA000822BAA2797FDA095BA2F809309019093D4
:100CB0000A01A0930B01B0930C018F8190E0982F53
:100CC00088272E81822B909308018093070183E06F
:100CD00080930F018FEFB0CF80910E01B9DC10929D
:100CE0000D0141981FDD80E0A7CF44DD419A80E0EF
:100CF000A3CF80910D01811112C08B8190E0982FBC
:100D000088272A81822BAA2797FDA095BA2F809346
:100D1000090190930A01A0930B01B0930C013C814F
:100D20002D81822F8F7080930401822F807F40E17C
:100D3000849FC0011124830F911D9093060180931D
:100D4000050120FD809303018F8190E0982F882773
:100D50002E81822B909308018093070181E080937C
:100D60000F018FEF69CF81E080930D018A819B8114
:100D7000AC81BD818093090190930A01A0930B017E
:100D8000B0930C0180E058CF80910D01811112C009
:100D90008B8190E0982F88272A81822BAA2797FDA4
:100DA000A095BA2F8093090190930A01A0930B019B
:100DB000B0930C01109206011092050110920401EB
:100DC0008F8190E0982F88272E81822B90930801A5
:100DD0008093070184E080930F018FEF2DCFD2DC49
:100DE0008093100181E028CF8B8190E0982F882795
:100DF0002A81822BAA2797FDA095BA2F80930901FB
:100E000090930A01A0930B01B0930C018F8190E0A5
:100E1000982F88272E81822B9093080180930701B9
:100E200085E080930F018FEF07CF8A8180930E01B9
:100E30001092100181E000CF8B8190E0982F8827DD
:100E40002A81822BAA2797FDA095BA2F80930901AA
:100E500090930A01A0930B01B0930C018F8190E055
:100E6000982F88272E81822B909308018093070169
:100E700086E080930F018FEFDFCE81E08093100139
:100E800010921101109212011092130184E0D4CE3D
:100E90008B8190E0982F88272A81822B909349019B
:100EA000809348012A9A229A83E0F5DD2A98419896
:100EB00080E1F1DDFCDD80E0BFCE80EC08DE80E08B
:100EC00006DE8AE0E8DD2A9A85E0E5DD2A9885E0FD
:100ED000E2DD84B1837D84B985B1837D85B9419A92
:100EE00080E0AACE17DE8093100181E0A5CE8A8132
:100EF000EEDD80E0A1CEFF920F931F93CF93DF939F
:100F0000582F792FF62E20910F013EEF320F3230FD
:100F100050F0253009F452C08FEFDF91CF911F912F
:100F20000F91FF900895662309F43FC08091090155
:100F300090910A01A0910B01B0910C01052F172F80
:100F40003FEF360FE801C30FD11D1DC053DDF8017F
:100F500080838091090190910A01A0910B01B091C9
:100F60000C010196A11DB11D8093090190930A0106
:100F7000A0930B01B0930C010C171D0761F0209199
:100F80000F010F5F1F4F223009F7BC01CD0148DC74
:100F9000F8018083DECFF7E0FF1538F48F2DDF9165
:100FA000CF911F910F91FF90089510920F018F2DF7
:100FB000DF91CF911F910F91FF900895462F682FD9
:100FC0008091090190910A01BEDD80910901909103
:100FD0000A01A0910B01B0910C018F0D911DA11D73
:100FE000B11D8093090190930A01A0930B01B09366
:100FF0000C018F2D92CFFF920F931F93CF93DF930E
:10100000382F792F162F20910F01213061F02430D5
:1010100051F0263009F494C08FEFDF91CF911F91EA
:101020000F91FF900895112309F482C08091090166
:1010300090910A01A0910B01B0910C01C32FD72F01
:101040001150AE01410F511D8A01F12C4DC020916C
:10105000050130910601232B09F04FC021E04881A2
:10106000BC01CD0112DC2091070130910801215013
:1010700031093093080120930701232BE1F41092EA
:101080000F018091040181FF35C08091030190E040
:1010900020910501309106018217930759F1609163
:1010A000090170910A0180910B0190910C01488116
:1010B0004ADCFF24F3948091090190910A01A091E8
:1010C0000B01B0910C010196A11DB11D8093090186
:1010D00090930A01A0930B01B0930C01C017D107A4
:1010E00041F120910F012196213009F4B0CF6881A0
:1010F000A6DCB9CFFF24F394DECF20E04881BC0109
:10110000CD01C3DB809103018150809303018111E4
:10111000AACF6091090170910A0180910B01909111
:101120000C01488110DC80910501809303019BCF65
:10113000F12C8F2DDF91CF911F910F91FF9008958A
:10114000462F682F8091090190910A0106DD809158
:10115000090190910A01A0910B01B0910C01810F3E
:10116000911DA11DB11D8093090190930A01A093C7
:101170000B01B0930C018091070190910801811B34
:1011800091099093080180930701892B21F4109213
:101190000F0181E042CF80E040CF98B121E0811182
:1011A00020E09C7F922B611104C082E0982B98B9BB
:1011B000089580E0982B98B9089593E097B998B96D
:1011C0001BB815B81AB814B888B18C7F816088B97B
:1011D00085B18C7F85B984B1836084B92FE739EA02
:1011E00083E0215030408040E1F700C0000014B897
:1011F00088B18C7F826088B995BD88D878945FD794
:081200005ED7FDCFF894FFCF8B
:02120800FF5A8B
:00000001FF
